{
    "_format": "hh-sol-artifact-1",
    "contractName": "MultiSigWalletFactory",
    "sourceName": "contracts/MultiSigWalletFactory.sol",
    "abi": [
        {
            "anonymous": false,
            "inputs": [
                {
                    "indexed": false,
                    "internalType": "address",
                    "name": "walletAddress",
                    "type": "address"
                },
                {
                    "indexed": false,
                    "internalType": "address[]",
                    "name": "owners",
                    "type": "address[]"
                }
            ],
            "name": "WalletCreated",
            "type": "event"
        },
        {
            "inputs": [
                {
                    "internalType": "address[]",
                    "name": "owners",
                    "type": "address[]"
                },
                {
                    "internalType": "uint256",
                    "name": "requiredConfirmations",
                    "type": "uint256"
                }
            ],
            "name": "createWallet",
            "outputs": [
                {
                    "internalType": "address",
                    "name": "",
                    "type": "address"
                }
            ],
            "stateMutability": "nonpayable",
            "type": "function"
        },
        {
            "inputs": [],
            "name": "getAllWallets",
            "outputs": [
                {
                    "internalType": "address[]",
                    "name": "",
                    "type": "address[]"
                }
            ],
            "stateMutability": "view",
            "type": "function"
        },
        {
            "inputs": [
                {
                    "internalType": "address",
                    "name": "user",
                    "type": "address"
                }
            ],
            "name": "getUserWallets",
            "outputs": [
                {
                    "internalType": "address[]",
                    "name": "",
                    "type": "address[]"
                }
            ],
            "stateMutability": "view",
            "type": "function"
        },
        {
            "inputs": [
                {
                    "internalType": "address",
                    "name": "",
                    "type": "address"
                },
                {
                    "internalType": "uint256",
                    "name": "",
                    "type": "uint256"
                }
            ],
            "name": "userWallets",
            "outputs": [
                {
                    "internalType": "address",
                    "name": "",
                    "type": "address"
                }
            ],
            "stateMutability": "view",
            "type": "function"
        },
        {
            "inputs": [
                {
                    "internalType": "uint256",
                    "name": "",
                    "type": "uint256"
                }
            ],
            "name": "wallets",
            "outputs": [
                {
                    "internalType": "address",
                    "name": "",
                    "type": "address"
                }
            ],
            "stateMutability": "view",
            "type": "function"
        }
    ],
    "bytecode": "0x6080604052348015600f57600080fd5b50612a048061001f6000396000f3fe608060405234801561001057600080fd5b50600436106100575760003560e01c80630155e0981461005c5780631bfa86011461008c5780633800a55d146100aa5780636cbae157146100da5780637ad71f721461010a575b600080fd5b61007660048036038101906100719190610558565b61013a565b60405161008391906105a7565b60405180910390f35b610094610188565b6040516100a19190610680565b60405180910390f35b6100c460048036038101906100bf91906107fb565b610216565b6040516100d191906105a7565b60405180910390f35b6100f460048036038101906100ef9190610857565b610397565b6040516101019190610680565b60405180910390f35b610124600480360381019061011f9190610884565b610464565b60405161013191906105a7565b60405180910390f35b6001602052816000526040600020818154811061015657600080fd5b906000526020600020016000915091509054906101000a900473ffffffffffffffffffffffffffffffffffffffff1681565b6060600080548060200260200160405190810160405280929190818152602001828054801561020c57602002820191906000526020600020905b8160009054906101000a900473ffffffffffffffffffffffffffffffffffffffff1673ffffffffffffffffffffffffffffffffffffffff16815260200190600101908083116101c2575b5050505050905090565b6000808383604051610227906104a3565b6102329291906108c0565b604051809103906000f08015801561024e573d6000803e3d6000fd5b5090506000819080600181540180825580915050600190039060005260206000200160009091909190916101000a81548173ffffffffffffffffffffffffffffffffffffffff021916908373ffffffffffffffffffffffffffffffffffffffff160217905550600160003373ffffffffffffffffffffffffffffffffffffffff1673ffffffffffffffffffffffffffffffffffffffff168152602001908152602001600020819080600181540180825580915050600190039060005260206000200160009091909190916101000a81548173ffffffffffffffffffffffffffffffffffffffff021916908373ffffffffffffffffffffffffffffffffffffffff1602179055507f0d1013664d1afda1c712a76630e584de8dd1d656331b90608aedc997fdb7839e81856040516103859291906108f0565b60405180910390a18091505092915050565b6060600160008373ffffffffffffffffffffffffffffffffffffffff1673ffffffffffffffffffffffffffffffffffffffff16815260200190815260200160002080548060200260200160405190810160405280929190818152602001828054801561045857602002820191906000526020600020905b8160009054906101000a900473ffffffffffffffffffffffffffffffffffffffff1673ffffffffffffffffffffffffffffffffffffffff168152602001906001019080831161040e575b50505050509050919050565b6000818154811061047457600080fd5b906000526020600020016000915054906101000a900473ffffffffffffffffffffffffffffffffffffffff1681565b6120ae8061092183390190565b6000604051905090565b600080fd5b600080fd5b600073ffffffffffffffffffffffffffffffffffffffff82169050919050565b60006104ef826104c4565b9050919050565b6104ff816104e4565b811461050a57600080fd5b50565b60008135905061051c816104f6565b92915050565b6000819050919050565b61053581610522565b811461054057600080fd5b50565b6000813590506105528161052c565b92915050565b6000806040838503121561056f5761056e6104ba565b5b600061057d8582860161050d565b925050602061058e85828601610543565b9150509250929050565b6105a1816104e4565b82525050565b60006020820190506105bc6000830184610598565b92915050565b600081519050919050565b600082825260208201905092915050565b6000819050602082019050919050565b6105f7816104e4565b82525050565b600061060983836105ee565b60208301905092915050565b6000602082019050919050565b600061062d826105c2565b61063781856105cd565b9350610642836105de565b8060005b8381101561067357815161065a88826105fd565b975061066583610615565b925050600181019050610646565b5085935050505092915050565b6000602082019050818103600083015261069a8184610622565b905092915050565b600080fd5b6000601f19601f8301169050919050565b7f4e487b7100000000000000000000000000000000000000000000000000000000600052604160045260246000fd5b6106f0826106a7565b810181811067ffffffffffffffff8211171561070f5761070e6106b8565b5b80604052505050565b60006107226104b0565b905061072e82826106e7565b919050565b600067ffffffffffffffff82111561074e5761074d6106b8565b5b602082029050602081019050919050565b600080fd5b600061077761077284610733565b610718565b9050808382526020820190506020840283018581111561079a5761079961075f565b5b835b818110156107c357806107af888261050d565b84526020840193505060208101905061079c565b5050509392505050565b600082601f8301126107e2576107e16106a2565b5b81356107f2848260208601610764565b91505092915050565b60008060408385031215610812576108116104ba565b5b600083013567ffffffffffffffff8111156108305761082f6104bf565b5b61083c858286016107cd565b925050602061084d85828601610543565b9150509250929050565b60006020828403121561086d5761086c6104ba565b5b600061087b8482850161050d565b91505092915050565b60006020828403121561089a576108996104ba565b5b60006108a884828501610543565b91505092915050565b6108ba81610522565b82525050565b600060408201905081810360008301526108da8185610622565b90506108e960208301846108b1565b9392505050565b60006040820190506109056000830185610598565b81810360208301526109178184610622565b9050939250505056fe608060405234801561001057600080fd5b506040516120ae3803806120ae833981810160405281019061003291906104a0565b600082510361006d576040517f49e27cff00000000000000000000000000000000000000000000000000000000815260040160405180910390fd5b600081148061007c5750815181115b156100b3576040517fe16db4b300000000000000000000000000000000000000000000000000000000815260040160405180910390fd5b60005b82518110156102905760008382815181106100d4576100d36104fc565b5b60200260200101519050600073ffffffffffffffffffffffffffffffffffffffff168173ffffffffffffffffffffffffffffffffffffffff1603610144576040517f49e27cff00000000000000000000000000000000000000000000000000000000815260040160405180910390fd5b600160008273ffffffffffffffffffffffffffffffffffffffff1673ffffffffffffffffffffffffffffffffffffffff16815260200190815260200160002060009054906101000a900460ff16156101c8576040517fd67c6fdb00000000000000000000000000000000000000000000000000000000815260040160405180910390fd5b60018060008373ffffffffffffffffffffffffffffffffffffffff1673ffffffffffffffffffffffffffffffffffffffff16815260200190815260200160002060006101000a81548160ff0219169083151502179055506000819080600181540180825580915050600190039060005260206000200160009091909190916101000a81548173ffffffffffffffffffffffffffffffffffffffff021916908373ffffffffffffffffffffffffffffffffffffffff1602179055505080806001019150506100b6565b5080600281905550505061052b565b6000604051905090565b600080fd5b600080fd5b600080fd5b6000601f19601f8301169050919050565b7f4e487b7100000000000000000000000000000000000000000000000000000000600052604160045260246000fd5b610301826102b8565b810181811067ffffffffffffffff821117156103205761031f6102c9565b5b80604052505050565b600061033361029f565b905061033f82826102f8565b919050565b600067ffffffffffffffff82111561035f5761035e6102c9565b5b602082029050602081019050919050565b600080fd5b600073ffffffffffffffffffffffffffffffffffffffff82169050919050565b60006103a082610375565b9050919050565b6103b081610395565b81146103bb57600080fd5b50565b6000815190506103cd816103a7565b92915050565b60006103e66103e184610344565b610329565b9050808382526020820190506020840283018581111561040957610408610370565b5b835b81811015610432578061041e88826103be565b84526020840193505060208101905061040b565b5050509392505050565b600082601f830112610451576104506102b3565b5b81516104618482602086016103d3565b91505092915050565b6000819050919050565b61047d8161046a565b811461048857600080fd5b50565b60008151905061049a81610474565b92915050565b600080604083850312156104b7576104b66102a9565b5b600083015167ffffffffffffffff8111156104d5576104d46102ae565b5b6104e18582860161043c565b92505060206104f28582860161048b565b9150509250929050565b7f4e487b7100000000000000000000000000000000000000000000000000000000600052603260045260246000fd5b611b748061053a6000396000f3fe6080604052600436106100ab5760003560e01c806382e717f71161006457806382e717f7146102535780639ace38c21461027e578063a0e67e2b146102bf578063c01a8c84146102ea578063c642747414610313578063ee22610b1461033c57610102565b8063025e7c271461010757806320ea8d86146101445780632e7700f01461016d5780632f54bf6e1461019857806333ea3dc8146101d557806380f59a651461021657610102565b36610102573373ffffffffffffffffffffffffffffffffffffffff167f90890809c654f11d6e72a28fa60149770a0d11ec6c92319d6ceb2bb0a4ea1a1534476040516100f89291906110fe565b60405180910390a2005b600080fd5b34801561011357600080fd5b5061012e60048036038101906101299190611167565b610365565b60405161013b91906111d5565b60405180910390f35b34801561015057600080fd5b5061016b60048036038101906101669190611167565b6103a4565b005b34801561017957600080fd5b5061018261065a565b60405161018f91906111f0565b60405180910390f35b3480156101a457600080fd5b506101bf60048036038101906101ba9190611237565b610667565b6040516101cc919061127f565b60405180910390f35b3480156101e157600080fd5b506101fc60048036038101906101f79190611167565b610687565b60405161020d95949392919061132a565b60405180910390f35b34801561022257600080fd5b5061023d60048036038101906102389190611384565b61079a565b60405161024a919061127f565b60405180910390f35b34801561025f57600080fd5b506102686107c9565b60405161027591906111f0565b60405180910390f35b34801561028a57600080fd5b506102a560048036038101906102a09190611167565b6107cf565b6040516102b695949392919061132a565b60405180910390f35b3480156102cb57600080fd5b506102d46108ca565b6040516102e19190611482565b60405180910390f35b3480156102f657600080fd5b50610311600480360381019061030c9190611167565b610958565b005b34801561031f57600080fd5b5061033a600480360381019061033591906115d9565b610c11565b005b34801561034857600080fd5b50610363600480360381019061035e9190611167565b610e11565b005b6000818154811061037557600080fd5b906000526020600020016000915054906101000a900473ffffffffffffffffffffffffffffffffffffffff1681565b600160003373ffffffffffffffffffffffffffffffffffffffff1673ffffffffffffffffffffffffffffffffffffffff16815260200190815260200160002060009054906101000a900460ff16610427576040517f30cd747100000000000000000000000000000000000000000000000000000000815260040160405180910390fd5b806003805490508110610466576040517f9e1b596f00000000000000000000000000000000000000000000000000000000815260040160405180910390fd5b816003818154811061047b5761047a611648565b5b906000526020600020906005020160030160009054906101000a900460ff16156104d1576040517f2ea945cf00000000000000000000000000000000000000000000000000000000815260040160405180910390fd5b6004600084815260200190815260200160002060003373ffffffffffffffffffffffffffffffffffffffff1673ffffffffffffffffffffffffffffffffffffffff16815260200190815260200160002060009054906101000a900460ff16610565576040517fe471069a00000000000000000000000000000000000000000000000000000000815260040160405180910390fd5b60006003848154811061057b5761057a611648565b5b9060005260206000209060050201905060018160040160008282546105a091906116a6565b9250508190555060006004600086815260200190815260200160002060003373ffffffffffffffffffffffffffffffffffffffff1673ffffffffffffffffffffffffffffffffffffffff16815260200190815260200160002060006101000a81548160ff021916908315150217905550833373ffffffffffffffffffffffffffffffffffffffff167ff0dca620e2e81f7841d07bcc105e1704fb01475b278a9d4c236e1c62945edd5560405160405180910390a350505050565b6000600380549050905090565b60016020528060005260406000206000915054906101000a900460ff1681565b60008060606000806000600387815481106106a5576106a4611648565b5b906000526020600020906005020190508060000160009054906101000a900473ffffffffffffffffffffffffffffffffffffffff168160010154826002018360030160009054906101000a900460ff16846004015482805461070690611709565b80601f016020809104026020016040519081016040528092919081815260200182805461073290611709565b801561077f5780601f106107545761010080835404028352916020019161077f565b820191906000526020600020905b81548152906001019060200180831161076257829003601f168201915b50505050509250955095509550955095505091939590929450565b60046020528160005260406000206020528060005260406000206000915091509054906101000a900460ff1681565b60025481565b600381815481106107df57600080fd5b90600052602060002090600502016000915090508060000160009054906101000a900473ffffffffffffffffffffffffffffffffffffffff169080600101549080600201805461082e90611709565b80601f016020809104026020016040519081016040528092919081815260200182805461085a90611709565b80156108a75780601f1061087c576101008083540402835291602001916108a7565b820191906000526020600020905b81548152906001019060200180831161088a57829003601f168201915b5050505050908060030160009054906101000a900460ff16908060040154905085565b6060600080548060200260200160405190810160405280929190818152602001828054801561094e57602002820191906000526020600020905b8160009054906101000a900473ffffffffffffffffffffffffffffffffffffffff1673ffffffffffffffffffffffffffffffffffffffff1681526020019060010190808311610904575b5050505050905090565b600160003373ffffffffffffffffffffffffffffffffffffffff1673ffffffffffffffffffffffffffffffffffffffff16815260200190815260200160002060009054906101000a900460ff166109db576040517f30cd747100000000000000000000000000000000000000000000000000000000815260040160405180910390fd5b806003805490508110610a1a576040517f9e1b596f00000000000000000000000000000000000000000000000000000000815260040160405180910390fd5b8160038181548110610a2f57610a2e611648565b5b906000526020600020906005020160030160009054906101000a900460ff1615610a85576040517f2ea945cf00000000000000000000000000000000000000000000000000000000815260040160405180910390fd5b826004600082815260200190815260200160002060003373ffffffffffffffffffffffffffffffffffffffff1673ffffffffffffffffffffffffffffffffffffffff16815260200190815260200160002060009054906101000a900460ff1615610b1b576040517f9dae146400000000000000000000000000000000000000000000000000000000815260040160405180910390fd5b600060038581548110610b3157610b30611648565b5b906000526020600020906005020190506001816004016000828254610b56919061173a565b9250508190555060016004600087815260200190815260200160002060003373ffffffffffffffffffffffffffffffffffffffff1673ffffffffffffffffffffffffffffffffffffffff16815260200190815260200160002060006101000a81548160ff021916908315150217905550843373ffffffffffffffffffffffffffffffffffffffff167f5cbe105e36805f7820e291f799d5794ff948af2a5f664e580382defb6339004160405160405180910390a35050505050565b600160003373ffffffffffffffffffffffffffffffffffffffff1673ffffffffffffffffffffffffffffffffffffffff16815260200190815260200160002060009054906101000a900460ff16610c94576040517f30cd747100000000000000000000000000000000000000000000000000000000815260040160405180910390fd5b60036040518060a001604052808573ffffffffffffffffffffffffffffffffffffffff1681526020018481526020018381526020016000151581526020016000815250908060018154018082558091505060019003906000526020600020906005020160009091909190915060008201518160000160006101000a81548173ffffffffffffffffffffffffffffffffffffffff021916908373ffffffffffffffffffffffffffffffffffffffff160217905550602082015181600101556040820151816002019081610d66919061191a565b5060608201518160030160006101000a81548160ff0219169083151502179055506080820151816004015550508273ffffffffffffffffffffffffffffffffffffffff166001600380549050610dbc91906116a6565b3373ffffffffffffffffffffffffffffffffffffffff167fd5a05bf70715ad82a09a756320284a1b54c9ff74cd0f8cce6219e79b563fe59d8585604051610e049291906119ec565b60405180910390a4505050565b600160003373ffffffffffffffffffffffffffffffffffffffff1673ffffffffffffffffffffffffffffffffffffffff16815260200190815260200160002060009054906101000a900460ff16610e94576040517f30cd747100000000000000000000000000000000000000000000000000000000815260040160405180910390fd5b806003805490508110610ed3576040517f9e1b596f00000000000000000000000000000000000000000000000000000000815260040160405180910390fd5b8160038181548110610ee857610ee7611648565b5b906000526020600020906005020160030160009054906101000a900460ff1615610f3e576040517f2ea945cf00000000000000000000000000000000000000000000000000000000815260040160405180910390fd5b600060038481548110610f5457610f53611648565b5b9060005260206000209060050201905060025481600401541015610fa4576040517fe16db4b300000000000000000000000000000000000000000000000000000000815260040160405180910390fd5b60018160030160006101000a81548160ff02191690831515021790555060008160000160009054906101000a900473ffffffffffffffffffffffffffffffffffffffff1673ffffffffffffffffffffffffffffffffffffffff168260010154836002016040516110149190611aaa565b60006040518083038185875af1925050503d8060008114611051576040519150601f19603f3d011682016040523d82523d6000602084013e611056565b606091505b505090508061109a576040517f08c379a000000000000000000000000000000000000000000000000000000000815260040161109190611b1e565b60405180910390fd5b843373ffffffffffffffffffffffffffffffffffffffff167f5445f318f4f5fcfb66592e68e0cc5822aa15664039bd5f0ffde24c5a8142b1ac60405160405180910390a35050505050565b6000819050919050565b6110f8816110e5565b82525050565b600060408201905061111360008301856110ef565b61112060208301846110ef565b9392505050565b6000604051905090565b600080fd5b600080fd5b611144816110e5565b811461114f57600080fd5b50565b6000813590506111618161113b565b92915050565b60006020828403121561117d5761117c611131565b5b600061118b84828501611152565b91505092915050565b600073ffffffffffffffffffffffffffffffffffffffff82169050919050565b60006111bf82611194565b9050919050565b6111cf816111b4565b82525050565b60006020820190506111ea60008301846111c6565b92915050565b600060208201905061120560008301846110ef565b92915050565b611214816111b4565b811461121f57600080fd5b50565b6000813590506112318161120b565b92915050565b60006020828403121561124d5761124c611131565b5b600061125b84828501611222565b91505092915050565b60008115159050919050565b61127981611264565b82525050565b60006020820190506112946000830184611270565b92915050565b600081519050919050565b600082825260208201905092915050565b60005b838110156112d45780820151818401526020810190506112b9565b60008484015250505050565b6000601f19601f8301169050919050565b60006112fc8261129a565b61130681856112a5565b93506113168185602086016112b6565b61131f816112e0565b840191505092915050565b600060a08201905061133f60008301886111c6565b61134c60208301876110ef565b818103604083015261135e81866112f1565b905061136d6060830185611270565b61137a60808301846110ef565b9695505050505050565b6000806040838503121561139b5761139a611131565b5b60006113a985828601611152565b92505060206113ba85828601611222565b9150509250929050565b600081519050919050565b600082825260208201905092915050565b6000819050602082019050919050565b6113f9816111b4565b82525050565b600061140b83836113f0565b60208301905092915050565b6000602082019050919050565b600061142f826113c4565b61143981856113cf565b9350611444836113e0565b8060005b8381101561147557815161145c88826113ff565b975061146783611417565b925050600181019050611448565b5085935050505092915050565b6000602082019050818103600083015261149c8184611424565b905092915050565b600080fd5b600080fd5b7f4e487b7100000000000000000000000000000000000000000000000000000000600052604160045260246000fd5b6114e6826112e0565b810181811067ffffffffffffffff82111715611505576115046114ae565b5b80604052505050565b6000611518611127565b905061152482826114dd565b919050565b600067ffffffffffffffff821115611544576115436114ae565b5b61154d826112e0565b9050602081019050919050565b82818337600083830152505050565b600061157c61157784611529565b61150e565b905082815260208101848484011115611598576115976114a9565b5b6115a384828561155a565b509392505050565b600082601f8301126115c0576115bf6114a4565b5b81356115d0848260208601611569565b91505092915050565b6000806000606084860312156115f2576115f1611131565b5b600061160086828701611222565b935050602061161186828701611152565b925050604084013567ffffffffffffffff81111561163257611631611136565b5b61163e868287016115ab565b9150509250925092565b7f4e487b7100000000000000000000000000000000000000000000000000000000600052603260045260246000fd5b7f4e487b7100000000000000000000000000000000000000000000000000000000600052601160045260246000fd5b60006116b1826110e5565b91506116bc836110e5565b92508282039050818111156116d4576116d3611677565b5b92915050565b7f4e487b7100000000000000000000000000000000000000000000000000000000600052602260045260246000fd5b6000600282049050600182168061172157607f821691505b602082108103611734576117336116da565b5b50919050565b6000611745826110e5565b9150611750836110e5565b925082820190508082111561176857611767611677565b5b92915050565b60008190508160005260206000209050919050565b60006020601f8301049050919050565b600082821b905092915050565b6000600883026117d07fffffffffffffffffffffffffffffffffffffffffffffffffffffffffffffffff82611793565b6117da8683611793565b95508019841693508086168417925050509392505050565b6000819050919050565b600061181761181261180d846110e5565b6117f2565b6110e5565b9050919050565b6000819050919050565b611831836117fc565b61184561183d8261181e565b8484546117a0565b825550505050565b600090565b61185a61184d565b611865818484611828565b505050565b5b818110156118895761187e600082611852565b60018101905061186b565b5050565b601f8211156118ce5761189f8161176e565b6118a884611783565b810160208510156118b7578190505b6118cb6118c385611783565b83018261186a565b50505b505050565b600082821c905092915050565b60006118f1600019846008026118d3565b1980831691505092915050565b600061190a83836118e0565b9150826002028217905092915050565b6119238261129a565b67ffffffffffffffff81111561193c5761193b6114ae565b5b6119468254611709565b61195182828561188d565b600060209050601f8311600181146119845760008415611972578287015190505b61197c85826118fe565b8655506119e4565b601f1984166119928661176e565b60005b828110156119ba57848901518255600182019150602085019450602081019050611995565b868310156119d757848901516119d3601f8916826118e0565b8355505b6001600288020188555050505b505050505050565b6000604082019050611a0160008301856110ef565b8181036020830152611a1381846112f1565b90509392505050565b600081905092915050565b60008154611a3481611709565b611a3e8186611a1c565b94506001821660008114611a595760018114611a6e57611aa1565b60ff1983168652811515820286019350611aa1565b611a778561176e565b60005b83811015611a9957815481890152600182019150602081019050611a7a565b838801955050505b50505092915050565b6000611ab68284611a27565b915081905092915050565b600082825260208201905092915050565b7f5478206661696c65640000000000000000000000000000000000000000000000600082015250565b6000611b08600983611ac1565b9150611b1382611ad2565b602082019050919050565b60006020820190508181036000830152611b3781611afb565b905091905056fea2646970667358221220c730cc4b7ae192d56fc198d4166fec3c99d19c2b7716299b27cc68f67fecce6864736f6c634300081c0033a2646970667358221220efc197f018cc1aa799b2d3752883d85c2147f6d8962b27a71ea14dfc814707fd64736f6c634300081c0033",
    "linkReferences": {},
    "deployedLinkReferences": {}
}